{
  "contractName": "EsensVote",
  "abi": [
    {
      "constant": true,
      "inputs": [
        {
          "name": "",
          "type": "uint256"
        }
      ],
      "name": "scrutins",
      "outputs": [
        {
          "name": "name",
          "type": "bytes32"
        },
        {
          "name": "scrutinOwner",
          "type": "address"
        },
        {
          "name": "isVisibleResult",
          "type": "bool"
        },
        {
          "name": "isOpenToProposal",
          "type": "bool"
        },
        {
          "name": "isStartVoted",
          "type": "bool"
        }
      ],
      "payable": false,
      "stateMutability": "view",
      "type": "function"
    },
    {
      "inputs": [],
      "payable": false,
      "stateMutability": "nonpayable",
      "type": "constructor"
    },
    {
      "anonymous": false,
      "inputs": [
        {
          "indexed": false,
          "name": "_scrutinId",
          "type": "uint256"
        },
        {
          "indexed": false,
          "name": "_propositionId",
          "type": "uint256"
        },
        {
          "indexed": false,
          "name": "_counter",
          "type": "uint256"
        }
      ],
      "name": "VoteSubmitted",
      "type": "event"
    },
    {
      "anonymous": false,
      "inputs": [
        {
          "indexed": false,
          "name": "_scrutinId",
          "type": "uint256"
        },
        {
          "indexed": false,
          "name": "_name",
          "type": "bytes32"
        },
        {
          "indexed": false,
          "name": "_scrutinOwner",
          "type": "address"
        },
        {
          "indexed": false,
          "name": "_isVisibleResult",
          "type": "bool"
        },
        {
          "indexed": false,
          "name": "_isOpenToProposal",
          "type": "bool"
        }
      ],
      "name": "ScrutinCreated",
      "type": "event"
    },
    {
      "anonymous": false,
      "inputs": [
        {
          "indexed": false,
          "name": "_scrutinId",
          "type": "uint256"
        },
        {
          "indexed": false,
          "name": "_name",
          "type": "bytes32"
        },
        {
          "indexed": false,
          "name": "_scrutinOwner",
          "type": "address"
        },
        {
          "indexed": false,
          "name": "_isVisibleResult",
          "type": "bool"
        },
        {
          "indexed": false,
          "name": "_isOpenToProposal",
          "type": "bool"
        }
      ],
      "name": "ScrutinUpdated",
      "type": "event"
    },
    {
      "anonymous": false,
      "inputs": [
        {
          "indexed": false,
          "name": "_propositionId",
          "type": "uint256"
        },
        {
          "indexed": false,
          "name": "_scrutinId",
          "type": "uint256"
        },
        {
          "indexed": false,
          "name": "_description",
          "type": "bytes32"
        }
      ],
      "name": "PropositionCreated",
      "type": "event"
    },
    {
      "anonymous": false,
      "inputs": [
        {
          "indexed": false,
          "name": "_propositionId",
          "type": "uint256"
        },
        {
          "indexed": false,
          "name": "_scrutinId",
          "type": "uint256"
        },
        {
          "indexed": false,
          "name": "_description",
          "type": "bytes32"
        }
      ],
      "name": "PropositionUpdated",
      "type": "event"
    },
    {
      "constant": false,
      "inputs": [
        {
          "name": "_name",
          "type": "bytes32"
        },
        {
          "name": "_isVisibleResult",
          "type": "bool"
        },
        {
          "name": "_isOpenToProposal",
          "type": "bool"
        }
      ],
      "name": "createScrutin",
      "outputs": [
        {
          "name": "",
          "type": "uint256"
        }
      ],
      "payable": false,
      "stateMutability": "nonpayable",
      "type": "function"
    },
    {
      "constant": true,
      "inputs": [
        {
          "name": "_scrutinId",
          "type": "uint256"
        }
      ],
      "name": "isAdmin",
      "outputs": [
        {
          "name": "",
          "type": "bool"
        }
      ],
      "payable": false,
      "stateMutability": "view",
      "type": "function"
    },
    {
      "constant": true,
      "inputs": [
        {
          "name": "_propositionId",
          "type": "uint256"
        }
      ],
      "name": "isAdminProposition",
      "outputs": [
        {
          "name": "",
          "type": "bool"
        }
      ],
      "payable": false,
      "stateMutability": "view",
      "type": "function"
    },
    {
      "constant": false,
      "inputs": [
        {
          "name": "_scrutinId",
          "type": "uint256"
        },
        {
          "name": "_name",
          "type": "bytes32"
        },
        {
          "name": "_isVisibleResult",
          "type": "bool"
        },
        {
          "name": "_isOpenToProposal",
          "type": "bool"
        }
      ],
      "name": "updateScrutin",
      "outputs": [],
      "payable": false,
      "stateMutability": "nonpayable",
      "type": "function"
    },
    {
      "constant": false,
      "inputs": [
        {
          "name": "_scrutinId",
          "type": "uint256"
        },
        {
          "name": "_description",
          "type": "bytes32"
        }
      ],
      "name": "createProposal",
      "outputs": [],
      "payable": false,
      "stateMutability": "nonpayable",
      "type": "function"
    },
    {
      "constant": false,
      "inputs": [
        {
          "name": "_propositionId",
          "type": "uint256"
        },
        {
          "name": "_description",
          "type": "bytes32"
        }
      ],
      "name": "updateProposition",
      "outputs": [],
      "payable": false,
      "stateMutability": "nonpayable",
      "type": "function"
    },
    {
      "constant": false,
      "inputs": [
        {
          "name": "_propositionId",
          "type": "uint256"
        }
      ],
      "name": "submitVote",
      "outputs": [],
      "payable": false,
      "stateMutability": "nonpayable",
      "type": "function"
    },
    {
      "constant": true,
      "inputs": [
        {
          "name": "_scrutinId",
          "type": "uint256"
        }
      ],
      "name": "getPropositionIdIfUserHasAlreadyVotedOnScrutinId",
      "outputs": [
        {
          "name": "",
          "type": "int256"
        }
      ],
      "payable": false,
      "stateMutability": "view",
      "type": "function"
    }
  ],
  "bytecode": "0x608060405234801561001057600080fd5b5061004d7f507265736964656e7469656c6c6500000000000000000000000000000000000060016000610101640100000000026401000000009004565b5061008860007f4d6163726f6e00000000000000000000000000000000000000000000000000006102d3640100000000026401000000009004565b6100c260007f4c652050656e00000000000000000000000000000000000000000000000000006102d3640100000000026401000000009004565b6100fc60007f4573656e730000000000000000000000000000000000000000000000000000006102d3640100000000026401000000009004565b610497565b6000806001600060a060405190810160405280886000191681526020013373ffffffffffffffffffffffffffffffffffffffff1681526020018715158152602001861515815260200160001515815250908060018154018082558091505090600182039060005260206000209060020201600090919290919091506000820151816000019060001916905560208201518160010160006101000a81548173ffffffffffffffffffffffffffffffffffffffff021916908373ffffffffffffffffffffffffffffffffffffffff16021790555060408201518160010160146101000a81548160ff02191690831515021790555060608201518160010160156101000a81548160ff02191690831515021790555060808201518160010160166101000a81548160ff02191690831515021790555050500390507fab1397ed97fc24b2eb4b3de6acf85f071cb84ba0d2add417d3e09763d24112be81863387876040518086815260200185600019166000191681526020018473ffffffffffffffffffffffffffffffffffffffff1673ffffffffffffffffffffffffffffffffffffffff16815260200183151515158152602001821515151581526020019550505050505060405180910390a1509392505050565b6000806000848154811015156102e557fe5b906000526020600020906002020191508160010160159054906101000a900460ff168061036157503373ffffffffffffffffffffffffffffffffffffffff168260010160009054906101000a900473ffffffffffffffffffffffffffffffffffffffff1673ffffffffffffffffffffffffffffffffffffffff16145b156104915760018060806040519081016040528087815260200186600019168152602001600081526020013373ffffffffffffffffffffffffffffffffffffffff168152509080600181540180825580915050906001820390600052602060002090600402016000909192909190915060008201518160000155602082015181600101906000191690556040820151816002015560608201518160030160006101000a81548173ffffffffffffffffffffffffffffffffffffffff021916908373ffffffffffffffffffffffffffffffffffffffff16021790555050500390507f722fbaa5d30161db5741e62507758bb490ede36539b8e34177ad546ba5c1a392818585604051808481526020018381526020018260001916600019168152602001935050505060405180910390a15b50505050565b610fa7806104a66000396000f300608060405260043610610099576000357c0100000000000000000000000000000000000000000000000000000000900463ffffffff1680631617f2ae1461009e5780631f6dc437146100d9578063229d60271461011e5780632844328f1461017b5780634d6868b5146101a85780635ff70b2e146101fb578063786e5be01461029857806384f6a0f4146102d3578063f1307ba414610314575b600080fd5b3480156100aa57600080fd5b506100d7600480360381019080803590602001909291908035600019169060200190929190505050610359565b005b3480156100e557600080fd5b506101046004803603810190808035906020019092919050505061051d565b604051808215151515815260200191505060405180910390f35b34801561012a57600080fd5b506101656004803603810190808035600019169060200190929190803515159060200190929190803515159060200190929190505050610595565b6040518082815260200191505060405180910390f35b34801561018757600080fd5b506101a660048036038101908080359060200190929190505050610767565b005b3480156101b457600080fd5b506101f9600480360381019080803590602001909291908035600019169060200190929190803515159060200190929190803515159060200190929190505050610a27565b005b34801561020757600080fd5b5061022660048036038101908080359060200190929190505050610bd3565b6040518086600019166000191681526020018573ffffffffffffffffffffffffffffffffffffffff1673ffffffffffffffffffffffffffffffffffffffff1681526020018415151515815260200183151515158152602001821515151581526020019550505050505060405180910390f35b3480156102a457600080fd5b506102d1600480360381019080803590602001909291908035600019169060200190929190505050610c5f565b005b3480156102df57600080fd5b506102fe60048036038101908080359060200190929190505050610e16565b6040518082815260200191505060405180910390f35b34801561032057600080fd5b5061033f60048036038101908080359060200190929190505050610f03565b604051808215151515815260200191505060405180910390f35b60008060008481548110151561036b57fe5b906000526020600020906002020191508160010160159054906101000a900460ff16806103e757503373ffffffffffffffffffffffffffffffffffffffff168260010160009054906101000a900473ffffffffffffffffffffffffffffffffffffffff1673ffffffffffffffffffffffffffffffffffffffff16145b156105175760018060806040519081016040528087815260200186600019168152602001600081526020013373ffffffffffffffffffffffffffffffffffffffff168152509080600181540180825580915050906001820390600052602060002090600402016000909192909190915060008201518160000155602082015181600101906000191690556040820151816002015560608201518160030160006101000a81548173ffffffffffffffffffffffffffffffffffffffff021916908373ffffffffffffffffffffffffffffffffffffffff16021790555050500390507f722fbaa5d30161db5741e62507758bb490ede36539b8e34177ad546ba5c1a392818585604051808481526020018381526020018260001916600019168152602001935050505060405180910390a15b50505050565b60003373ffffffffffffffffffffffffffffffffffffffff1660008381548110151561054557fe5b906000526020600020906002020160010160009054906101000a900473ffffffffffffffffffffffffffffffffffffffff1673ffffffffffffffffffffffffffffffffffffffff16149050919050565b6000806001600060a060405190810160405280886000191681526020013373ffffffffffffffffffffffffffffffffffffffff1681526020018715158152602001861515815260200160001515815250908060018154018082558091505090600182039060005260206000209060020201600090919290919091506000820151816000019060001916905560208201518160010160006101000a81548173ffffffffffffffffffffffffffffffffffffffff021916908373ffffffffffffffffffffffffffffffffffffffff16021790555060408201518160010160146101000a81548160ff02191690831515021790555060608201518160010160156101000a81548160ff02191690831515021790555060808201518160010160166101000a81548160ff02191690831515021790555050500390507fab1397ed97fc24b2eb4b3de6acf85f071cb84ba0d2add417d3e09763d24112be81863387876040518086815260200185600019166000191681526020018473ffffffffffffffffffffffffffffffffffffffff1673ffffffffffffffffffffffffffffffffffffffff16815260200183151515158152602001821515151581526020019550505050505060405180910390a1509392505050565b600060018281548110151561077857fe5b9060005260206000209060040201905060001515600460003373ffffffffffffffffffffffffffffffffffffffff1673ffffffffffffffffffffffffffffffffffffffff16815260200190815260200160002060008360000154815260200190815260200160002060009054906101000a900460ff1615151415156107fc57600080fd5b806002016000815480929190600101919050555060026060604051908101604052803373ffffffffffffffffffffffffffffffffffffffff16815260200183600001548152602001848152509080600181540180825580915050906001820390600052602060002090600302016000909192909190915060008201518160000160006101000a81548173ffffffffffffffffffffffffffffffffffffffff021916908373ffffffffffffffffffffffffffffffffffffffff16021790555060208201518160010155604082015181600201555050506001600082600001548154811015156108e657fe5b906000526020600020906002020160010160166101000a81548160ff0219169083151502179055506001600460003373ffffffffffffffffffffffffffffffffffffffff1673ffffffffffffffffffffffffffffffffffffffff16815260200190815260200160002060008360000154815260200190815260200160002060006101000a81548160ff02191690831515021790555081600360003373ffffffffffffffffffffffffffffffffffffffff1673ffffffffffffffffffffffffffffffffffffffff168152602001908152602001600020600083600001548152602001908152602001600020819055507feae33df196a32d272e8aa809e6cf4f18536005fa3f76c93c4b4072f5c4766903816000015483836002015460405180848152602001838152602001828152602001935050505060405180910390a15050565b3373ffffffffffffffffffffffffffffffffffffffff16600085815481101515610a4d57fe5b906000526020600020906002020160010160009054906101000a900473ffffffffffffffffffffffffffffffffffffffff1673ffffffffffffffffffffffffffffffffffffffff16141515610aa157600080fd5b82600085815481101515610ab157fe5b9060005260206000209060020201600001816000191690555081600085815481101515610ada57fe5b906000526020600020906002020160010160146101000a81548160ff02191690831515021790555080600085815481101515610b1257fe5b906000526020600020906002020160010160156101000a81548160ff0219169083151502179055507f3f45238ae743b667b4903bce826445180f8ab93431c760f8fcebffc77a34238884843385856040518086815260200185600019166000191681526020018473ffffffffffffffffffffffffffffffffffffffff1673ffffffffffffffffffffffffffffffffffffffff16815260200183151515158152602001821515151581526020019550505050505060405180910390a150505050565b600081815481101515610be257fe5b90600052602060002090600202016000915090508060000154908060010160009054906101000a900473ffffffffffffffffffffffffffffffffffffffff16908060010160149054906101000a900460ff16908060010160159054906101000a900460ff16908060010160169054906101000a900460ff16905085565b600080600184815481101515610c7157fe5b906000526020600020906004020160000154815481101515610c8f57fe5b906000526020600020906002020160010160169054906101000a900460ff16151515610cba57600080fd5b600183815481101515610cc957fe5b906000526020600020906004020190503373ffffffffffffffffffffffffffffffffffffffff168160030160009054906101000a900473ffffffffffffffffffffffffffffffffffffffff1673ffffffffffffffffffffffffffffffffffffffff161480610da657503373ffffffffffffffffffffffffffffffffffffffff1660008260000154815481101515610d5c57fe5b906000526020600020906002020160010160009054906101000a900473ffffffffffffffffffffffffffffffffffffffff1673ffffffffffffffffffffffffffffffffffffffff16145b1515610db157600080fd5b818160010181600019169055507f7bb1fa15624fd615248c597d0b08af1db95b76ac88f47526de232b0d48b390fa83826000015484604051808481526020018381526020018260001916600019168152602001935050505060405180910390a1505050565b6000801515600460003373ffffffffffffffffffffffffffffffffffffffff1673ffffffffffffffffffffffffffffffffffffffff168152602001908152602001600020600084815260200190815260200160002060009054906101000a900460ff161515141515610eda57600360003373ffffffffffffffffffffffffffffffffffffffff1673ffffffffffffffffffffffffffffffffffffffff1681526020019081526020016000206000838152602001908152602001600020549050610efe565b7fffffffffffffffffffffffffffffffffffffffffffffffffffffffffffffffff90505b919050565b60003373ffffffffffffffffffffffffffffffffffffffff16600183815481101515610f2b57fe5b906000526020600020906004020160030160009054906101000a900473ffffffffffffffffffffffffffffffffffffffff1673ffffffffffffffffffffffffffffffffffffffff161490509190505600a165627a7a7230582044893c68671338f7b0563bc93b8b3da8a80168409374627d2a63afb4522964850029",
  "source": "pragma solidity ^0.4.23;\n\ncontract EsensVote {\n  struct Scrutin {\n    bytes32 name;\n    address scrutinOwner;\n    bool isVisibleResult;\n    bool isOpenToProposal;\n    bool isStartVoted;\n  }\n\n  struct Vote {\n    address voter;\n    uint scrutinId;\n    uint propositionId;\n  }\n\n  struct Proposition {\n    uint scrutinId;\n    bytes32 description;\n    uint counter;\n    address scrutinOwner;\n  }\n\n  Scrutin[] public scrutins;\n  Proposition[] propositions;\n  Vote[] private votes;\n\n  mapping(address => mapping(uint => uint)) private propositionIdVotedForScrutinId;\n  mapping(address => mapping(uint => bool)) private isScrutinVoted;\n\n  event VoteSubmitted(uint _scrutinId, uint _propositionId, uint _counter);\n  event ScrutinCreated(uint _scrutinId, bytes32 _name, address _scrutinOwner, bool _isVisibleResult, bool _isOpenToProposal);\n  event ScrutinUpdated(uint _scrutinId, bytes32 _name, address _scrutinOwner, bool _isVisibleResult, bool _isOpenToProposal);\n  event PropositionCreated(uint _propositionId, uint _scrutinId, bytes32 _description);\n  event PropositionUpdated(uint _propositionId, uint _scrutinId, bytes32 _description);\n\n  function EsensVote() public {\n    createScrutin('Presidentielle', true, false);\n    createProposal(0, 'Macron');\n    createProposal(0, 'Le Pen');\n    createProposal(0, 'Esens');\n  }\n\n  function createScrutin(bytes32 _name, bool _isVisibleResult, bool _isOpenToProposal) public returns (uint) {\n    uint _scrutinId = scrutins.push(Scrutin(_name, msg.sender, _isVisibleResult, _isOpenToProposal, false)) - 1;\n    emit ScrutinCreated(_scrutinId, _name, msg.sender, _isVisibleResult, _isOpenToProposal);\n  }\n\n  function isAdmin(uint _scrutinId) public view returns (bool) {\n    return scrutins[_scrutinId].scrutinOwner == msg.sender;\n  }\n\n  function isAdminProposition(uint _propositionId) public view returns (bool) {\n    return propositions[_propositionId].scrutinOwner == msg.sender;\n  }\n\n  function updateScrutin(uint _scrutinId, bytes32 _name, bool _isVisibleResult, bool _isOpenToProposal) public {\n    require(scrutins[_scrutinId].scrutinOwner == msg.sender);\n    scrutins[_scrutinId].name = _name;\n    scrutins[_scrutinId].isVisibleResult = _isVisibleResult;\n    scrutins[_scrutinId].isOpenToProposal = _isOpenToProposal;\n    emit ScrutinUpdated(_scrutinId, _name, msg.sender, _isVisibleResult, _isOpenToProposal);\n  }\n\n  function createProposal(uint _scrutinId, bytes32 _description) public {\n    Scrutin storage scrutin = scrutins[_scrutinId];\n    if (scrutin.isOpenToProposal || scrutin.scrutinOwner == msg.sender) {\n      uint _propositionId = propositions.push(Proposition(_scrutinId, _description, 0, msg.sender)) - 1;\n      emit PropositionCreated(_propositionId, _scrutinId, _description);\n    }\n  }\n\n  function updateProposition(uint _propositionId, bytes32 _description) public {\n    require(!scrutins[propositions[_propositionId].scrutinId].isStartVoted);\n    Proposition storage proposition = propositions[_propositionId];\n    require(proposition.scrutinOwner == msg.sender || scrutins[proposition.scrutinId].scrutinOwner == msg.sender);\n    proposition.description = _description;\n    emit PropositionUpdated(_propositionId, proposition.scrutinId, _description);\n  }\n\n  function submitVote(uint _propositionId) public {\n    Proposition storage proposition = propositions[_propositionId];\n    require(isScrutinVoted[msg.sender][proposition.scrutinId] == false);\n    proposition.counter++;\n    votes.push(Vote(msg.sender, proposition.scrutinId, _propositionId));\n    scrutins[proposition.scrutinId].isStartVoted = true;\n    isScrutinVoted[msg.sender][proposition.scrutinId] = true;\n    propositionIdVotedForScrutinId[msg.sender][proposition.scrutinId] = _propositionId;\n    emit VoteSubmitted(proposition.scrutinId, _propositionId, proposition.counter);\n  }\n\n  function getPropositionIdIfUserHasAlreadyVotedOnScrutinId(uint _scrutinId) public view returns (int) {\n    if(isScrutinVoted[msg.sender][_scrutinId] != false) {\n        return int(propositionIdVotedForScrutinId[msg.sender][_scrutinId]);\n    }\n    return - 1;\n  }\n}\n",
  "sourcePath": "/Users/esens/workspace-esens/decentralized-vote/contracts/EsensVote.sol",
  "compiler": {
    "name": "solc",
    "version": "0.4.23+commit.124ca40d.Emscripten.clang"
  },
  "schemaVersion": "2.0.0",
  "updatedAt": "2018-07-03T16:29:21.016Z"
}